:020000040800F2
:1000000010B40020C5030008DD7500087560000805
:10001000D975000815270008A58300080000000016
:1000200000000000000000000000000005030008C0
:100030000B3100080000000061030008AD790008E2
:10004000DF030008DF030008DF030008DF03000808
:10005000DF030008DF0300080D310008DF0300089C
:10006000DF0300081731000821310008DF03000812
:1000700039270008DF030008DF030008DF0300085A
:10008000DF030008DF030008DF030008DF030008C8
:1000900019270008DF030008DF0300082B310008E0
:1000A000DF030008DF030008DF030008DF030008A8
:1000B000DF030008DF030008DF030008DF03000898
:1000C000DF030008DF030008DF030008DF03000888
:1000D000DF03000875830008DF030008858300083C
:1000E000DF030008DF030008DF030008DF03000868
:1000F000DF030008DF030008DF030008DF03000858
:10010000DF030008DF030008DF030008DF03000847
:10011000DF030008DF030008DF030008DF03000837
:10012000DF030008DF03000849270008DF03000899
:10013000DF030008DF030008DF030008DF03000817
:1001400029270008DF030008DF030008DF03000899
:10015000DF030008E12F0008F12F00089583000855
:10016000DF030008DF030008DF030008DF030008E7
:10017000DF030008DF030008DF03000800000000C1
:10018000DF030008DF03000800F002F800F0AAF81F
:100190000AA090E8000C82448344AAF10107DA45E2
:1001A00001D100F09FF8AFF2090EBAE80F0013F08A
:1001B000010F18BFFB1A43F001031847B8FB0000FA
:1001C000D8FB00000A444FF0000C10F8013B13F07C
:1001D000070408BF10F8014B1D1108BF10F8015BA0
:1001E000641E05D010F8016B641E01F8016BF9D193
:1001F00013F0080F1EBF10F8014BAD1C0C1B09D1EA
:100200006D1E58BF01F801CBFAD505E014F8016B5B
:1002100001F8016B6D1EF9D59142D6D370470000ED
:100220000023002400250026103A28BF78C1FBD8FF
:10023000520728BF30C148BF0B60704766290FF0D6
:100240006C8465290FF0698467290FF06684612941
:100250000FF0658403681B0A28BF41F080016929FB
:1002600000F01C82642900F01982752900F01682C2
:100270006F2900F00C83782900F04883E92900F009
:10028000A782E42900F0A482F52900F0A182EF29D9
:1002900000F00983F82900F047830368DB0928BFD1
:1002A00041F08001632901F01A82E32901F02D82D7
:1002B000002070471FB50FF026FC9DE8030000F0FA
:1002C00073FD01F097FA0400002000210EF018FEE3
:1002D000401C6060002000210EF0FCFDE0601FBDAE
:1002E00010B510BD01F062FB1146FFF7E3FF0AF005
:1002F00055F801F080FB03B4FFF7F2FF03BC01F0F7
:10030000F1FB00002C4B19680868B0E8F04F80F34F
:100310000988BFF36F8F4FF0000080F3118870479A
:100320000000000008480068006880F308884FF06B
:10033000000080F3148862B661B6BFF34F8FBFF33D
:100340006F8F00DF00BF00BF08ED00E0DFF80C009A
:10035000016841F470010160704700BF88ED00E062
:10036000EFF30980BFF36F8F134B1A681EF0100F65
:1003700008BF20ED108A20E9F04F106009B44FF05B
:10038000500080F31188BFF34F8FBFF36F8F0DF0D4
:100390002FFE4FF0000080F3118809BC196808682F
:1003A000B0E8F04F1EF0100F08BFB0EC108A80F3D9
:1003B0000988BFF36F8F704724000020EFF305809A
:1003C000704700000948804709480047FEE7FEE7FC
:1003D000FEE7FEE7FEE7FEE7FEE7FEE7FEE7FEE7F5
:1003E00004480549054A064B70470000757A000825
:1003F000890100081074002010B40020109400201F
:100400001094002070B5064600F0B2FC056806F1B5
:100410000B0020F00704B4429CBF002070BD2B46A7
:100420006A68BAB11068A04210D304F1080188428A
:100430003CBF5068586007D351681019416011687B
:10044000091B016058601460101D70BD134652688E
:10045000002AE7D12146284600F092FC0028DED190
:1004600070BD70B50446051F00F082FC0068002CCA
:1004700014BF446870BD002C18BFAC423CBF20467E
:100480006468F8D301680A18AA4218BF456003D10E
:100490002A6805461144016028684119A1421CBF21
:1004A0006C6070BD6168696021680844286070BD37
:1004B00053EA020C00F069802DE9F04B4FF0000682
:1004C000002B1FBFB3FA83F503FA05F424FA05F6EF
:1004D0005E4012BF1643B2FA82F502FA05F4C5F186
:1004E00020051EBF22FA05FC44EA0C04203556EA1A
:1004F000044C4FEA144418BF641C4FF000084FF03E
:100500000009904271EB030C39D3002919BFB1FAED
:1005100081F701FA07F6B0FA80F700FA07F6C7F19B
:1005200020071EBF20FA07FC46EA0C062037B6FB60
:10053000F4FCA7EB0507103F07F01F0BCBF12006DB
:100540000CFA0BFB2CFA06F644BFB3460026202F0C
:10055000A4BF5E464FF0000B5BEA060C08BF4FF0ED
:10056000010B19EB0B09ABFB027C48EB0608C01B27
:1005700006FB02CC0BFB03CC71EB0C01C1E70B4675
:10058000024641464846BDE8F08B13B54FF00000E7
:100590004FF00001AFF30080BDE81C407047000041
:1005A0000FB47CB50C0009AA009001D02044401E75
:1005B000084B7B4469460190089801F066F80546AF
:1005C0001CB10020694601F073F828467CBC5DF838
:1005D00014FB00000511000070B504468569006831
:1005E000C10601D5302600E02026C00707D070BD27
:1005F000D4E9012130469047206A401C20626D1EDC
:10060000F6D570BD70B5044685690078C00707D17E
:1006100070BDD4E9012120209047206A401C20624F
:100620006D1EF6D570BD09684A0501D540B2704708
:10063000C905FCD500B2704709684A0501D5C0B2AA
:100640007047C905FCD580B2704770B50C460546A9
:10065000012A05D02878800600D5EA69002302E047
:10066000012305E05B1C934202D2E05C0028F9D133
:10067000A869E618C01AA861286A184428622846A2
:10068000FFF7AAFF04E0D5E9012114F8010B904718
:10069000B442F8D32846FFF7B5FF70BD2DE9F0410D
:1006A0000646002410687529314616A510D0FFF7BC
:1006B000BAFF002802DA404213A507E031688A0732
:1006C00001D512A502E0490704D511A5012401E0D6
:1006D000FFF7B2FF00210A2206F1240709E0B0FB70
:1006E000F2FCB0FBF2F302FB1C00303078541846E9
:1006F000491C0028F3D123462A463046BDE8F04184
:1007000000F0D8BB000000002D0000002B0000000E
:10071000200000002DE9FF5F15468A460446DFF8F9
:10072000AC80F8440027D8E900103E46CDE900101F
:1007300010E03AF816106A4602A800F0F2FF411CD9
:1007400007D02178890603D5E269391891420DD87E
:100750000744761C2078800602D5E069B84205DDA2
:10076000AE42E6DB3AF816000028E2D1A069C01BD1
:10077000A0612046FFF730FFD8E90010CDE9001056
:10078000002017E03AF818106A4602A800F0C9FFE6
:10079000B0F1FF3F81460BD000250DF1080B05E0BD
:1007A000D4E901211BF8050090476D1C4D45F7D396
:1007B00008F10100B0428046E4DB206A3844206240
:1007C0002046FFF71FFFBDE8FF9F000022F5000055
:1007D0002DE9F0418046D21D22F007020025D2E922
:1007E0000002F52915A614D0011E72F1000106DAE7
:1007F0000023D0EB030063EB020211A608E0D8F857
:1008000000108B0701D50FA602E0490701D50EA6FF
:1008100001251146002408F1240704E000F0FAFA4B
:1008200030323A55641C50EA0102F7D12B46324669
:1008300021464046BDE8F04100F03CBB000000000E
:100840002D0000002B0000002000000030B400212B
:1008500000F1240408E002F00705D208303542EA2E
:100860004372DB086554491C52EA0305F3D104685E
:10087000002310A2250707D5A40600D421B1C4691E
:1008800001230DA2641EC46130BC00F013BB10B57F
:10089000044621461068FFF7CFFE02462046BDE819
:1008A00010400023D2E7D21D22F00701D1E9002336
:1008B000CCE700000000000030000000F0B40D465E
:1008C0000188090502D51B4C7C4402E0194C7C448C
:1008D0000E34002100F1240608E002F00F0712098F
:1008E000E75D42EA03721B097754491C52EA030789
:1008F000F3D1224604780023240704D5702D02D0BA
:1009000009B102231132F0BC00F0D4BA70B504462C
:100910000D4621461068FFF78FFE02462946204605
:10092000BDE870400023C9E7D21D22F00703D3E9D8
:100930000023C3E784F300002DE9F05F89460446F5
:100940004FF0000ADFF874B1FB44C0F820A0204645
:10095000E1688847002874D0252806D0D4E9012111
:100960009047206A401C2062F1E700265F4620463F
:10097000E16888472028054607DB312D05D2781924
:1009800010F8200C08B10643F1E7B00701D526F0B6
:100990000406C4F81CA00027C4F818A02A2D09D00A
:1009A000284607F093FF38B304EB8708303DC8F8BA
:1009B000185019E059F8041B204604EB8702916196
:1009C000E1688847012F054618D1E069002820DA40
:1009D00026F020061DE0D8F8180000EB800005EB9B
:1009E00040003038C8F818002046E16888470546BE
:1009F00007F06CFF0028EED1012F0AD02E2D08D170
:100A00002046E16888477F1C0546022F46F02006F5
:100A1000C4DBA069002803DA404246F00106A06169
:100A2000F00701D026F010066C2D0BD0682D09D0F0
:100A30004C2D39D06A2D35D0742D35D07A2D33D048
:100A400016E038E0E1682F4620468847B842054660
:100A500009D16C2F26D04FF48060E1680643204610
:100A60008847054604E06C2F1AD04FF48070064387
:100A70000DB3A5F14100192802D8203546F40066CF
:100A80004A462946204626604E46FFF7D7FB80B1EE
:100A900001280BD0F61D26F0070000F1080956E7E3
:100AA0004020E4E78020D8E70020D6E706F10409DB
:100AB0004DE7284652E7206ABDE8F09F2CF300007E
:100AC00040EA010310B59B070FD1042A0DD310C8CB
:100AD00008C9121F9C42F8D020BA19BA884201D91D
:100AE000012010BD4FF0FF3010BD1AB1D30703D065
:100AF000521C07E0002010BD10F8013B11F8014B1B
:100B00001B1B07D110F8013B11F8014B1B1B01D136
:100B1000921EF1D1184610BD10B5431C02E010F82A
:100B2000011B71B18107FAD14FF0013202C88C1A52
:100B30008C4314EAC211F9D0C01A0A0603D0C01EB1
:100B400010BDC01A10BD0A0401D0801E10BD0902DC
:100B5000FCD0401E10BD032A40F2308010F0030C80
:100B600000F0158011F8013BBCF1020F624498BF00
:100B700011F801CB00F8013B38BF11F8013BA2F19D
:100B8000040298BF00F801CB38BF00F8013B11F018
:100B9000030300F06780083AC0F0088051F8043B76
:100BA000083A51F804CBA0E80810F5E7121D5CBF25
:100BB00051F8043B40F8043BAFF30080D20724BF58
:100BC00011F8013B11F801CB48BF11F8012B24BFEC
:100BD00000F8013B00F801CB48BF00F8012B70473B
:100BE000431A28BF9A427FF6B6AF032A1044114435
:100BF00040F2268010F0030F1EBF11F8013D521E77
:100C000000F8013D10F0030F7FF4F6AF11F003037D
:100C100000F0BA85083AC0F00B8051F8043D083A5C
:100C200051F804CD40F8043D40F804CDFFF7F3BF80
:100C3000121D5CBF51F8043D40F8043DAFF3008045
:100C4000D20724BF11F8013D11F801CD48BF11F8BA
:100C5000012C24BF00F8013D00F801CD48BF00F889
:100C6000012C704710B5203AC0F00B80B1E8185045
:100C7000203AA0E81850B1E81850A0E81850BFF486
:100C8000F5AF5FEA027C24BFB1E81850A0E8185025
:100C900044BF18C918C0BDE810405FEA827C24BF79
:100CA00051F8043B40F8043B08BF7047D20728BF07
:100CB00031F8023B48BF11F8012B28BF20F8023B56
:100CC00048BF00F8012B704702F0FF0343EA0322FC
:100CD00042EA024200F002B84FF000020429C0F0DC
:100CE000128010F0030C00F01B80CCF1040CBCF15E
:100CF000020F18BF00F8012BA8BF20F8022BA1EBB0
:100D00000C0100F00DB85FEAC17C24BF00F8012B94
:100D100000F8012B48BF00F8012B70474FF000028C
:100D200000B5134694469646203922BFA0E80C50E1
:100D3000A0E80C50B1F12001BFF4F7AF090728BFBC
:100D4000A0E80C5048BF0CC05DF804EB890028BF38
:100D500040F8042B08BF704748BF20F8022B11F061
:100D6000804F18BF00F8012B7047704770477047DD
:100D700000487047B4730020704770477047704751
:100D800038B504460A4600206946AFF300800028C3
:100D900008BF38BD02460099204600F033FD01200F
:100DA00038BD012000F0FABDF8B5AFF3008005466C
:100DB00000200C46102000BF0646A819A0420DD9FD
:100DC000324669460020AFF30080070008BF00F0FC
:100DD000E5FD0098A04218BF0546C419FFF7C8FFFB
:100DE00005600746F01D20F007004619284600F070
:100DF0000AF8B44208BFF8BDA21B31463868BDE806
:100E0000F84000F0FFBC00210160C0E9011070470C
:100E10001020704730B5B0F10A024FEA900E71F120
:100E200000034EEA817EB0EB0E0061EB91014FEAC8
:100E3000101E4EEA017E10EB0E0041EB11114FEA3D
:100E4000102E4EEA016E10EB0E0041EB11214FEA1D
:100E5000104E4EEA014E10EB0E0041EB11414018CE
:100E600041F100014FEAD00040EA41704FEAD10160
:100E700010EB80054FEA810444EA907444EB0104CE
:100E80006D1944EB0404521BA3414FF0000348BF0B
:100E90000A3200D530BD401C41F1000130BD10B513
:100EA00000F0ACFC006810BD10B5044600F0A6FCD4
:100EB000046010BD2DE9F0470D4699469246044660
:100EC00000F124080168880604D5E06921F01001CA
:100ED000216000E00120A84201DD471B00E000275F
:100EE000A1697A1902EB0900081AA0612078C006EE
:100EF00002D42046FFF770FB002608E0D4E9012168
:100F00001AF806009047206A401C761C20624E4565
:100F1000F4DB2078C0060AD52046FFF75DFB06E02B
:100F2000D4E9012130209047206A401C2062381EFD
:100F3000A7F10107F4DC07E0D4E9012118F8050066
:100F40009047206A401C2062281EA5F10105F3DCB1
:100F50002046FFF757FB2078000602D50220BDE8A7
:100F6000F0870120FBE770472DE9FF4F0C461E4636
:100F70004FF0FF378BB0D2E90001DDF860800A90B6
:100F80008A46C1F30A5505B93D46002108464FF08F
:100F90000000BAF1000F00F4400005DA00EB800019
:100FA0004FF4400101EA50004FEA9059B9F1010FA6
:100FB00000DDB9460A9850EA4A000ED044F61050B7
:100FC000A5F2FF3545432F14B8F1000F1ED075422E
:100FD000291E1EDDC9F100021CE0B8F1010F4FF01F
:100FE000000001D0302103E0F24305E02154401C11
:100FF000B042FBDB30460022002121540B99C1F89E
:101000000880C1E900200FB0BDE8F08FBD1B6D1C4A
:10101000DEE74A4600DA694206A800F04DFC06AB5E
:1010200093E8070003AB83E8070050460A9900F0F5
:101030007FFD8DE80700A0F500501F380090039851
:10104000002D0ADD42F21F014A460844002303A98D
:101050000390684600F0E8FF09E0A0F500504A461A
:101060001F38002303A90390684600F0F2FF8DE8C3
:1010700007000004000C03D04FF0FF30410800E0EF
:101080001046B8F1000F03D00022009215461EE072
:10109000751E05D4FFF7BEFE303262556D1EF9D5C0
:1010A000B3460122084302D000227F1C04E02078CE
:1010B000302801D100227F1E002A099784D01DE02C
:1010C000112D07DAFFF7A6FE303262556D1C50EA8B
:1010D0000102F5D1084302D00098C8B10EE000210A
:1010E000681E05E0235C625C63542254401E491C68
:1010F0008142F7DBAB46A81B401E0990002004F894
:101100000B000B98099AC0F80880C0E9002B7AE719
:1011100011264FF0000857E72DE9F04F88460446A6
:10112000D21D22F0070191B0D1E90001CDE90A01F9
:1011300007F03AF902460B98C00F01D02D2007E0C6
:101140002068810701D52B2002E0202101EAC000A0
:10115000032A099001D0072A05DB034641462046B1
:1011600000F06AFB0BE12078800601D5E06900E021
:101170000620B8F1650F814606D0B8F1660F18D089
:10118000B8F1670F70D131E00020B9F1110F009074
:1011900001DB112301E009F101030AAA01A90CA84E
:1011A000FFF7E2FEDDE90C70002609F10105834638
:1011B00047E001204B4600904FF000470AAA01A9E2
:1011C0000CA8FFF7D1FEDDE90DB00C995D460026B5
:1011D00010B909F101000D18B9EB050003D4C0F1F5
:1011E000FF3609F10105A5EB09002BE0B9F1010F6C
:1011F00001DA4FF001090020B9F1110F00904846C3
:1012000001DD112300E003460AAA01A90CA8FFF79B
:10121000ABFEDDE90C704D460026834620780007C2
:101220000AD4AB4500DA5D4601A8012D04DD411961
:1012300011F8011C302907D04F4502DA17F1040FCD
:1012400004DA012082460FE06D1EEEE7002F02DC7B
:10125000ED1B3E4403E0781CA84200DD7D1CB81B5A
:1012600000F1010A4FF000472078000703D4AA4597
:1012700001DB4FF0FF3A0021B7F1004F0DF14308B9
:101280008DF8431024D002202B23002F01DA7F4257
:101290002D230A21021EA0F1010000DC5FB197FBA3
:1012A000F1FC97FBF1F201FB1C7C17460CF1300CB2
:1012B00008F801CDEEE7A8F10100037021880905C7
:1012C00001D5452100E06521A0F1010800F8011CCD
:1012D00009980FA9A1EB0807FF1D00B101204119D2
:1012E00001EBEA70A1693844081A401EA061207819
:1012F000C00602D42046FFF76FF9099828B1D4E957
:1013000001219047206A401C20622078C00622D527
:101310002046FFF761F91EE0002E04DBB34502DD35
:1013200001A8805D00E03020D4E901219047206AC7
:10133000401C2062761CAAF101005FEA000A0AD173
:1013400000F058FAC0680168405CD4E90121904778
:10135000206A401C2062281EA5F10105DCDC07E0A4
:10136000D4E9012118F8010B9047206A401C206243
:10137000381EA7F10107F3DC2046FFF743F90320ED
:1013800011B041E62DE9F04F04460D46D21D22F082
:10139000070089B0D0E900974846394607F004F8BD
:1013A0000246F80F01D02D2307E02068810701D500
:1013B0002B2302E0202101EAC0038DF820300BB17D
:1013C000012000E00020032A824601D0072A04DB26
:1013D0002946204600F030FA3FE12078800601D40B
:1013E0000D2500E0E569C7F30A560D2D49DA002105
:1013F0004FEA175B08464FF00000002F00F4400052
:1014000007DA00EB80004FF4400100EBD07001EAF6
:1014100060008115012901DD4FF0FF3100224FEA04
:10142000850CBCF1180F06D31346ACF118004FF031
:101430008052C24003E04FF4801323FA0CF30CF106
:101440000C0CBCF1200F04D3ACF1200C09FA0CF009
:1014500001E007FA0CF000294FF0004801DD18B94F
:101460000FE00ED140450CD319EB02095F4121B9C1
:10147000404502D19F4329EA0209BBEB175F00D028
:10148000761C2088000502D57B48784402E07A4823
:101490007844193808AA302302F80A30037C0AF18C
:1014A0000101002E0AF1020A53546A4602DC4FF091
:1014B000300101E04FF031014FF001088DF80010CC
:1014C00002D0A6F2FF3603E059EA470100D06B4E86
:1014D000002D02DC2178090704D54FF002082E21E7
:1014E0008DF80110C44600210BE0C7F303433F0110
:1014F000C35C491C6D1E02F80830052908F101087B
:1015000001DA002DF1DC00210CE000EB1973491C1D
:101510001B786D1E082902F808304FEA091908F1F6
:10152000010801DA002DF0DC21688B0602D516E0F7
:10153000A8F10108E04505DD02EB080313F8013CC2
:10154000302BF5D0B8F1000F09DD02EB080313F8DA
:10155000013C2E2B03D1090701D4A8F10108002D6D
:1015600005DD3E2102F808106D1E08F10108407CDF
:10157000002E02F8080008F1010804DA2D20764256
:1015800002F8080002E02B2002F808000A214FF4BC
:101590007A70864208F101080BDB96FBF0F33033DA
:1015A00002F8083096FBF0F308F1010800FB13661F
:1015B00001E0642E0CDB642096FBF0F3303302F87C
:1015C000083096FBF0F308F1010800FB136601E018
:1015D0000A2E06DB96FBF1F0303002F8080008F125
:1015E000010896FBF1F001FB1060303002F80800B2
:1015F000A16908F1010808EB050202EB0A00081ACC
:10160000A0612078C00602D42046FEF7E5FF216ADB
:1016100008AE01EB0A00206204E0D4E9012116F8CB
:10162000010B9047BAF1010AF7D22078C00602D523
:101630002046FEF7D1FF6E4609E016F8010B3E2862
:101640000FD0D4E901219047206A401C2062B8F1F4
:101650000108F2D22046FEF7D5FF09B00320BDE80D
:10166000F08F206A2844206203E0D4E90121302071
:1016700090476D1EEBD3F8E70EE8000002FCFFFF79
:1016800001694A1C02610878704700B58FB0CDE946
:1016900001310021059105497944CDE90310114636
:1016A0006846FFF749F90FB000BD0000E5FFFFFFF6
:1016B0000A6802F8010B0A607047D1E900239A42D8
:1016C00002D2531C0B601070704710B5436913B100
:1016D000AFF3008001E0FEF7B8FF012010BD1278E3
:1016E00000F124010A7000224A700122EDE711681E
:1016F0004FF0FF32E9E710B5436913B1AFF3008053
:1017000001E0FFF707F8012010BD128800F1240165
:1017100082840022C2840122EDE711684FF0FF327B
:10172000E9E770B516460C46054600F05BF803681D
:1017300093F80101012806D0FF2C0FD8185D68B17D
:1017400001202C7070BDD3F807013246214603F208
:10175000071303442846BDE8704018474FF0FF3098
:1017600070BD431A28BF9A427FF67CAA104410F03D
:10177000030F11441EBF11F8013D521E00F8013D38
:1017800010F0030F7FF4F6AF103AC0F00A8010B5E6
:1017900031E91850103A20E91850BFF4F9AFBDE80C
:1017A0001040530724BF31E9081020E9081044BF56
:1017B00051F8043D40F8043D12F0030F08BF704794
:1017C000D20728BF31F8023D48BF11F8012C28BFCD
:1017D00020F8023D48BF00F8012C704700487047D0
:1017E000AC73002010B500F005F8001D10BD00BF5F
:1017F00011D7000000487047CC73002000487047A4
:10180000AC730020034640688C46002818BF88420D
:101810003CBF03464068F8D318681844884207D094
:101820000CF1030020F00700001D411A521A014676
:10183000081D0A60FEF715BE2DE9F0411F4604465B
:1018400003260168072A01F4006004DB08B116A52D
:1018500005E016A503E008B115A500E015A521F0E7
:1018600010002060A069C01EA0610FB1401EA061E1
:101870002046FEF7B1FE4FB1D4E90121384690472A
:10188000206A401C2062C01C206206E0206AFAE741
:10189000D4E9012115F8010B9047761EF8D22046B5
:1018A000FEF7B0FEBDE8F0814E414E006E616E0065
:1018B000494E4600696E66002DE9F047814616469E
:1018C0008AB0354878440DC88DE80D003248784418
:1018D000801C03AC0DC884E80D0041F69B30084421
:1018E000372190FBF1F290FBF1F5A5F1800501FBAA
:1018F00012041B3C02D56442012000E00020DFF806
:1019000098A080460027FA44AAF1BE0A0EE0E0073C
:101910000AD03246684607EB470101230AEB8101F2
:1019200000F097FB8DE8070064107F1C002CEED1BF
:10193000194F7F44AE3F19E0E80715D007EB0410BC
:101940000DF1180A90E80E008AE80E00C068F04217
:1019500001D1981908903246012306A903A800F086
:1019600078FB03AB83E807006D10641C002DE3D106
:101970004FF0010332466946B8F1000F03A802D0C8
:1019800000F052FB01E000F064FBC9E90001C9F876
:1019900008200AB0BDE8F08764E4000010B500F04C
:1019A00039F8BDE8104000F02FB870477546FFF7D2
:1019B00015FFAE4605006946534620F007008546F0
:1019C00018B020B5FEF70CFDBDE820404FF0000632
:1019D0004FF000074FF000084FF0000B21F0070117
:1019E000AC46ACE8C009ACE8C009ACE8C009ACE85A
:1019F000C0098D46704710B50446AFF300802046FD
:101A0000BDE81040FEF777BC002801D000F06AB8AE
:101A10007047000010B5012805D0002103A000F098
:101A200067F8012010BD09A1F8E7000053494752AB
:101A3000544D454D3A204F7574206F66206865619E
:101A400070206D656D6F7279000000003A20486566
:101A50006170206D656D6F727920636F7272757041
:101A6000746564004FF0013C50F8042B51F8043BBE
:101A70009A4221D1A2EB0C03934313EACC1317D162
:101A800050F8042B51F8043B9A4215D1A2EB0C03F9
:101A9000934313EACC130BD150F8042B51F8043BB9
:101AA0009A4209D1A2EB0C03934313EACC13DBD087
:101AB0004FF00000704700BFD01A01BAB1FA81F1AF
:101AC00001F0180122FA01F0CB40C1F12001DBB294
:101AD000C0B2C01A2CFA01F3D11A914311EAC31112
:101AE000E6D1704701491820ABBEFEE72600020090
:101AF00070B505460C460A2000E06D1C00F011F898
:101B000035B128780028F8D102E0641C00F009F80B
:101B100014B120780028F8D1BDE870400A20AFF356
:101B2000008008B569468DF800000320ABBE08BDF3
:101B30005FEA400C08BF91F0000F4FEA8C234FEA98
:101B4000C12243EA51514FEA1C5018BF00F5F04042
:101B50004FEA300018BF41F000415FEA6C5C00F0D2
:101B60002980BCF1FF3F08BF40F080407047130C54
:101B700006BF12044FF0100C4FF0000C130E04BF00
:101B800012020CF1080C130F04BF12010CF1040C2B
:101B9000930F04BF92000CF1020CD30F04BF52004C
:101BA0000CF1010C11464FF00002A0F11F00A0EB58
:101BB0000C00704711F0004F08BF704731F0004132
:101BC0003FF4D5AF0B0C06BF09044FF0100C4FF0DB
:101BD000000C0B0E04BF09020CF1080C0B0F04BF24
:101BE00009010CF1040C8B0F04BF89000CF1020CED
:101BF000CB0F04BF49000CF1010CCCF12003A0EB8A
:101C00000C0022FA03F302FA0CF241EA030100F19C
:101C10000100704720F07F4C80EA030023F07F47EB
:101C2000ACEB070303F57C5300F0004003F1FF0326
:101C30002DE980494FEA154B09B44FEA144325EAD0
:101C40000B4E24EA03480FF2042606EB132749083B
:101C50003E785FEA320203FB0667C7F5000707FB21
:101C600006F64FEA54374FEAD64606F1020607FB5E
:101C7000066CCCF1005C4FEA1C472CEA074C07FBD2
:101C800006F40CFB06F504EB15464FEA961634BF36
:101C900000204FF000404FEAD13706FB07FC4FEA27
:101CA0001C4C0CFB0BF7D21B03FB0CF761EB070181
:101CB0000CFB0EF7B0EB074072EB17420CFB08F77A
:101CC00034BFA2EB0742B2EB074261EB17414FEA88
:101CD0000C444FEA910706FB07FC4FEA1C4C0CFB37
:101CE0000BF7B0EBC74072EB573203FB0CF734BF76
:101CF000A2EBC742B2EBC74261EB57310CFB0EF7C8
:101D0000B0EBC70072EB57720CFB08F734BFA2EBC5
:101D1000C702B2EBC70261EB5771039F4FEA8161C3
:101D200041EA921104EBCC044FEAD1374FEA8262C8
:101D300006FB07FC42EA90124FEA80604FEA1C4C17
:101D40000CFB0BF7D21B03FB0CF761EB07010CFB41
:101D50000EF7B0EB074072EB17420CFB08F734BFED
:101D6000A2EB0742B2EB074261EB17414FEA8C55F9
:101D70004FEA910704EB9C2406FB07FC4FEA1C4C3E
:101D80000CFB0BF7B0EBC74072EB573203FB0CF7C1
:101D900034BFA2EBC742B2EBC74261EB57310CFB39
:101DA0000EF7B0EBC70072EB57720CFB08F734BFAD
:101DB000A2EBC702B2EBC70261EB577115EB4C25E2
:101DC0004FEA816141EA92114FEA82624FEAD137CC
:101DD00042EA901206FB07FC44F100044FEA8060DF
:101DE0004FEA1C4C0CFB0BF7D21B03FB0CF761EB0F
:101DF00007010CFB0EF7B0EB074072EB17420CFB30
:101E000008F734BFA2EB0742B2EB074261EB174180
:101E100015EB1C154FEA813141EA92414FEA8232BB
:101E200042EA90424FEA80304FEA0C7644F10004D7
:101E300048EA03434EEA0B484FF0000EB2EB080CA1
:101E400071EB030724BF624639464EEB0E0E4FF08E
:101E5000000B0018524149414BEB0B0BB2EB080C45
:101E600071EB03077BF1000B24BF624639464EEB52
:101E70000E0E4FF0000B0018524149414BEB0B0B7B
:101E8000B2EB080C71EB03077BF1000B24BF624639
:101E900039464EEB0E0E51EA020718BF46F0010616
:101EA00016EB0E7655F1000254F1000103D5BDE8A2
:101EB0008901BDE80088BDE88901BDE80048B61980
:101EC000524141EB0101A3F10103704780807F7E05
:101ED0007D7C7B7A797877767675747372717170A0
:101EE0006F6E6E6D6C6C6B6A6A6968686766666552
:101EF0006464636362616160605F5F5E5E5D5D5CE0
:101F00005C5B5B5A5A595958585757565655555550
:101F10005454535352525251515050504F4F4F4EB0
:101F20004E4D4D4D4C4C4C4B4B4B4A4A4A494949FE
:101F30004848484747474746464645454544444440
:101F4000444343434342424242414141002B9C4669
:101F500030D477002BD01CB54FEA370703B44FF0CD
:101F600010004FF01001BAF1000F06D0BCF1000FC5
:101F7000DCBF40F0080040F008014FF000000FBC4B
:101F8000BDE810400BF1010BBBF1010F08BF5FEA88
:101F9000170722BF12F1010211F101014FF00041B8
:101FA00043F1000300F0004043EA00007047F9D31A
:101FB0005708D0E746EA064613F1400F4FEA1646A7
:101FC0001FDD13F1200FDFBF16430A460021203327
:101FD0005B42BED0C3F1200746EA064602FA07F785
:101FE0004FEA164646EA0706C3F1200722FA03F233
:101FF00001FA07F721FA03F14FF0000342EA070262
:10200000A7E746EA020646EA06464FEA164646EAC9
:102010000106BCBF46EA0646360C4FF000034FF0FF
:1020200000024FF0000194E72DE9804C9A46934658
:1020300070B491E8380007C831EA400C48BF34EA70
:10204000430C03D5FFF7E6FDFFF780FFF0BCBDE8CA
:10205000008C2DE9804C9A46934670B491E8380084
:1020600007C810F0804F08BF13F0804F03D100F075
:1020700005F8FFF76BFFF0BCBDE8008C20F07F4750
:1020800080EA030023F07F4C07EB0C03A3F57C539D
:1020900000F00040A3F1FE0392F0000F00F0B380C7
:1020A00095F0000F00F077802DE901494FEA1140CB
:1020B0004FEA144621EA004800FB06FC24EA0647E2
:1020C00008FB06F607FB08F800FB07F718EB0648C5
:1020D0004CEB164C4FEA124B18EB07484FEA1546EB
:1020E0004CEB174022EA0B4E0BFB06FC25EA064799
:1020F0000EFB06F607FB0EFE0BFB07F71EEB064E6C
:102100004CEB164C4FF000061EEB074E4CEB174BFA
:1021100018EB0B0840F1000018EB0E0B58EB000811
:1021200040F100008F1A4FF000013CBFC943661B0D
:1021300014BFB5EB040C00213CBFC943F61B4FEAAA
:1021400017444EEA8E0E27EA04454FEA1C4704FB6B
:1021500007622CEA074C05FB07F70CFB05F604FBAE
:102160000CFC16EB074642EB174216EB0C4642EB13
:102170001C421BEB060658EB0202414146EA9E0652
:1021800001D5BDE80189B619524141EB0101A3F126
:102190000103BDE801894FEA14454FEA114724EADB
:1021A000054621EA074C05FB07F406FB07F70CFB85
:1021B00006F105FB0CFC11EB074144EB17444FEA19
:1021C000124711EB0C4144EB1C4422EA074C05FB7F
:1021D00007F206FB07F70CFB06F605FB0CFC16EBFB
:1021E000074642EB174216EB0C4642EB1C456A18B9
:1021F00054F1000148BF7047B619524141EB01014B
:10220000A3F10103704795F0000F37D04FEA114258
:102210004FEA144721EA024624EA074C02FB07F181
:1022200006FB07F70CFB06F402FB0CFC14EB07445F
:1022300041EB17414FEA154714EB0C4441EB1C41AD
:1022400025EA074C02FB07F506FB07F70CFB06F631
:1022500002FB0CFC16EB074645EB174516EB0C464C
:1022600045EB1C42121951F1000148BF7047B619E5
:10227000524141EB0101A3F1010370474FEA1445BC
:102280004FEA114724EA054621EA074C05FB07F10E
:1022900006FB07F70CFB06F24FF0000605FB0CFCF3
:1022A00012EB074241EB174112EB0C4251EB1C4180
:1022B00048BF7047921841EB0101A3F10103704739
:1022C000B7EE000A80ED000A9FED060A80ED010AD4
:1022D0009FED040A80ED020A9FED020A80ED030AD9
:1022E00070470000000000002DE9F0412DED028B49
:1022F0000746B0EE408A0C4615461E46D6ED024A09
:10230000B0EE644AD6ED014AF0EE643AD6ED004AEA
:10231000B0EE643AD5ED024AF0EE642AD5ED014AFA
:10232000B0EE642AD5ED004AF0EE641AD4ED024A0C
:10233000B0EE641AD4ED014AF0EE640AD4ED004A1E
:10234000B0EE640A384604F0F3FCBDEC028BBDE845
:10235000F081000010B501221021024801F090FF29
:1023600010BD00000000024010B5002210210248FC
:1023700001F086FF10BD0000000002407047000021
:1023800010B501221146024801F07AFF10BD00008D
:102390000004024010B500220121024801F070FF44
:1023A00010BD00000004024010B543781B021BB2B0
:1023B0000478234300EE103AB8EEC01A1C4BD3ED5C
:1023C000001A21EE211A81ED001AC3781B021BB2FC
:1023D0008478234300EE103AB8EEC01A144BD3EDC4
:1023E000001A21EE211A81ED011A43791B021BB25A
:1023F0000479234300EE103AB8EEC01A0C4BD3ED2B
:10240000001A21EE211A81ED021A037A1B04C47905
:1024100043EA04238479234300EE903AB8EE601A2D
:10242000DFED041A21EE211A82ED001A10BD000022
:102430007401002000401C42704710B5044620463D
:1024400007F0D9FF10BD10B50446204607F036FB53
:1024500010BD00004278120212B203781A4300EE57
:10246000102AF8EEC00A144A92ED001A60EE810AB2
:10247000C1ED000AC278120212B283781A4300EE4C
:10248000102AF8EEC00A0C4A92ED001A60EE810A9A
:10249000C1ED010A4279120212B203791A4300EE29
:1024A000102AF8EEC00A044A92ED001A60EE810A82
:1024B000C1ED020A704700007801002010B5002429
:1024C000FFF75CFFFFF7B8FF06F042FB10B144F0E6
:1024D000800402E006F0A2FA044306F031FD10B1D8
:1024E00044F0400402E006F0B1FC0443204610BD75
:1024F0002DE9FC4105460E4617460020009001904C
:10250000FFF732FF922000F0D1F806226946122030
:1025100000F0ACF8FFF71EFF9DF80100000200B2CA
:102520009DF8001040EA010400EE104AB8EEC00A1F
:102530004C48D0ED000A20EE200A86ED000A9DF8F6
:102540000300000200B29DF8021040EA010400EE10
:10255000104AB8EEC00A4348D0ED000A20EE200A27
:1025600086ED010A9DF80500000200B29DF80410F6
:1025700040EA010400EE104AB8EEC00A3948D0ED36
:10258000000A20EE200A86ED020AFFF703FF082268
:102590006946002000F06AF8FFF7F2FE9DF800009F
:1025A0000F2838D19DF80300000200B29DF80210F8
:1025B00040EA010400EE104AB8EEC00A2A48D0ED05
:1025C000000A20EE200A85ED000A9DF805000002B1
:1025D00000B29DF8041040EA010400EE104AB8EE83
:1025E000C00A2148D0ED000A20EE200A85ED010A3C
:1025F0009DF80700000200B29DF8061040EA0104B1
:1026000000EE104AB8EEC00A1748D0ED000A20EEDE
:10261000200A85ED020AFFF7A7FEA22000F046F887
:1026200002226946222000F021F8FFF793FE9DF870
:102630000000C0009DF8011040EA6114B4F5806FFD
:1026400002DBA4F5006004B200EE104AF8EEC00A06
:10265000B4EE001AB3EE070A00EE810A87ED000A15
:10266000BDE8FC81740100207801002070B50646A9
:102670000C46154646F0800000F018F806E055209C
:1026800000F014F82070641C681EC5B2002DF6D14D
:1026900070BD70B504460D4644F0800000F006F8A9
:1026A000552000F003F8287070BD000001B582B01D
:1026B0004FF47A70012301AA02A90090024802F0A7
:1026C00087FE9DF804000EBDEC08002010B5024600
:1026D0001378DB00547843EA6410B0F5806F02DBB6
:1026E000A0F5006318B200EE100AF8EEC00AB4EECE
:1026F000001AB3EE070A00EE810A81ED000A10BD50
:1027000070B505460C462846FFF7D0FF2046FFF778
:10271000CDFF70BD00BFFEE710B5024800F01DFF01
:1027200010BD00004808002010B5024800F015FF59
:1027300010BD00007008002010B5024801F042FAF8
:1027400010BD0000E40B002010B5FE48C06C00680E
:10275000FD49884276D9FC4854380068F949C96C6B
:102760000968FA4A914201D1202169E0F549C96C12
:102770000968F54A483A914201D1202160E0F149C7
:10278000C96C0968F14A6032914201D1202157E0B9
:10279000EC49C96C0968EC4A1832914201D12021F8
:1027A0004EE0E849C96C0968E84A1832914201D103
:1027B000C91445E0E349C96C0968E34A303A9142DB
:1027C00001D1C9143CE0DF49C96C0968DF4A78329D
:1027D000914201D1C91433E0DA49C96C0968DA4A77
:1027E0003032914201D1C9142AE0D649C96C096836
:1027F000D64A3032914202D14FF4001120E0D14943
:10280000C96C0968D04A183A914202D14FF40011BC
:1028100016E0CC49C96C0968CC4A9032914202D189
:102820004FF400110CE0C749C96C0968C64A483228
:10283000914203D14FF4001102E003E04FF0006138
:10284000084070E1BF48C06C0068C049A8318842A8
:1028500076D9BD4858380068BA49C96C0968BB4A7E
:10286000914201D1202169E0B649C96C0968B64A94
:10287000483A914201D1202160E0B249C96C09680F
:10288000B24A6032914201D1202157E0AD49C96C72
:102890000968AD4A1832914201D120214EE0A94980
:1028A000C96C0968A94A1832914201D1C91445E09E
:1028B000A449C96C0968A44A303A914201D1C914AB
:1028C0003CE0A049C96C0968A04A7832914201D124
:1028D000C91433E09B49C96C09689B4A3032914264
:1028E00001D1C9142AE09749C96C0968974A303266
:1028F000914202D14FF4001120E09249C96C09685D
:10290000914A183A914202D14FF4001116E08D49D4
:10291000C96C09688D4A9032914202D14FF400117E
:102920000CE08849C96C0968874A4832914203D152
:102930004FF4001102E003E04FF000610840F2E0C4
:102940008048C06C006881494831884276D97F4808
:10295000103840687B49C96C09687C4A914201D1B2
:10296000202169E07749C96C0968774A483A914261
:1029700001D1202160E07349C96C0968734A603253
:10298000914201D1202157E06E49C96C09686E4A15
:102990001832914201D120214EE06A49C96C096880
:1029A0006A4A1832914201D1C91445E06549C96C9F
:1029B0000968654A303A914201D1C9143CE0614945
:1029C000C96C0968614A7832914201D1C91433E077
:1029D0005C49C96C09685C4A3032914201D1C91422
:1029E0002AE05849C96C0968584A3032914202D1EC
:1029F0004FF4001120E05349C96C0968524A183A53
:102A0000914202D14FF4001116E04E49C96C096899
:102A10004E4A9032914202D14FF400110CE04949E4
:102A2000C96C0968484A4832914203D14FF40011F9
:102A300002E003E04FF00061084074E043481038C2
:102A400000684049C96C0968404A914201D120217F
:102A500068E03C49C96C09683B4A483A914201D157
:102A600020215FE03749C96C0968384A60329142D9
:102A700001D1202156E03349C96C0968324A183225
:102A8000914201D120214DE02E49C96C09682F4A9D
:102A90001832914201D1C91444E02A49C96C09682D
:102AA000294A303A914201D1C9143BE02549C96C09
:102AB0000968264A7832914201D1C91432E021498D
:102AC000C96C0968204A3032914201D1C91429E009
:102AD0001C49C96C09681D4A3032914202D14FF439
:102AE00000111FE01749C96C0968174A183A91424A
:102AF00002D14FF4001115E01249C96C0968134A5C
:102B00009032914202D14FF400110BE00D49C96C93
:102B100009680D4A4832914202D14FF4001101E098
:102B20004FF00061084000286FD00648C06C006874
:102B3000054988427BD90348C06C00680349884234
:102B400008D105E0EC080020586402401060024003
:102B5000202068E0FE48C06C0068FE49884201D130
:102B6000202060E0FA48C06C0068FB49884201D12F
:102B7000202058E0F648C06C0068F6496031884271
:102B800001D120204FE0F248C06C0068F24948397A
:102B9000884201D1C01446E0ED48C06C0068ED49A0
:102BA0001831884201D1C0143DE0E948C06C00688A
:102BB000E9491831884201D1C01434E0E448C06CBE
:102BC0000068E4497831884201D1C0142BE0E04824
:102BD000C06C0068E0493039884202D14FF40010DF
:102BE00021E0DB48C06C0068DA493031884202D10C
:102BF0004FF4001017E0D648C06C0068D649303159
:102C0000884204D14FF400100DE0DFE10FE0D0481E
:102C1000C06C0068CF499031884202D14FF4001057
:102C200001E04FF00060CB49091F08606AE1C84825
:102C3000C06C0068C8494831884274D9C448C06C27
:102C40000068C5496039884201D1202066E0C0484B
:102C5000C06C0068BF49884201D120205EE0BC48BA
:102C6000C06C0068BC49884201D1202056E0B848B9
:102C7000C06C0068B7496031884201D120204DE026
:102C8000B348C06C0068B4494839884201D1C014C7
:102C900044E0AF48C06C0068AE491831884201D1A9
:102CA000C0143BE0AA48C06C0068AB4918318842A8
:102CB00001D1C01432E0A648C06C0068A549783143
:102CC000884201D1C01429E0A148C06C0068A24923
:102CD0003039884202D14FF400101FE09C48C06C8C
:102CE00000689C493031884202D14FF4001015E051
:102CF0009748C06C006898493031884202D14FF43F
:102D000000100BE09248C06C0068924990318842F4
:102D100002D14FF4001001E04FF000608D490839F6
:102D20000860EFE0FFE78A48C06C00688A491839FC
:102D3000884274D98648C06C0068874960398842E7
:102D400001D1202066E08248C06C00688149884239
:102D500001D120205EE07E48C06C00687E49884238
:102D600001D1202056E07A48C06C00687949603172
:102D7000884201D120204DE07548C06C006876493A
:102D80004839884201D1C01444E07148C06C0068E1
:102D900070491831884201D1C0143BE06C48C06CC6
:102DA00000686D491831884201D1C01432E068488A
:102DB000C06C006867497831884201D1C01429E0AD
:102DC0006348C06C006864493039884202D14FF4CE
:102DD00000101FE05E48C06C00685E4930318842D8
:102DE00002D14FF4001015E05948C06C00685A49F0
:102DF0003031884202D14FF400100BE05448C06CCF
:102E0000006854499031884202D14FF4001001E02B
:102E10004FF0006050497039C86073E0FFE74C48DC
:102E2000C06C00684C496039884201D1202066E0BE
:102E30004748C06C00684749884201D120205EE0C5
:102E40004348C06C00684449884201D1202056E0C4
:102E50003F48C06C00683F496031884201D1202062
:102E60004DE03B48C06C00683B494839884201D17D
:102E7000C01444E03648C06C0068364918318842B6
:102E800001D1C0143BE03248C06C006832491831AF
:102E9000884201D1C01432E02D48C06C00682D4931
:102EA0007831884201D1C01429E02948C06C0068FB
:102EB00029493039884202D14FF400101FE02448DC
:102EC000C06C006823493031884202D14FF40010B1
:102ED00015E01F48C06C00681F493031884202D19C
:102EE0004FF400100BE01A48C06C0068194990318B
:102EF000884202D14FF4001001E04FF00060164903
:102F0000703988601548007800F0020078B11348E5
:102F1000007820F00200114908700846007840F05F
:102F200004000870012211460D4801F0A9F90D486E
:102F3000007800F00200E0B10A48007820F00200BA
:102F4000084908700846007840F0040008700BE05B
:102F5000EC0800201064024070600240550100201F
:102F6000000402405601002001221021184801F0FF
:102F700087F91848007800F0020078B11548007809
:102F800020F00200134908700846007840F0040061
:102F90000870012210210E4801F072F906F0A8FF16
:102FA0000D48007800F0040080B10B48007820F054
:102FB0000400094908700846007840F008000870CD
:102FC0000648006840F001000449086010BD000098
:102FD000000002405701002055010020103C014034
:102FE00010B5024800F0EEFD10BD0000440C0020BA
:102FF00010B5024800F0E6FD10BD0000840B002073
:103000000146087810381823B0FBF3F20848805CBA
:10301000C865032A05D908686FF30900001D886593
:1030200003E008686FF309008865886D7047000049
:1030300094FB0008014600208A6A8B69CBB932B143
:10304000012A0DD0022A03D0032A10D10EE000BFBE
:10305000CB6A03F08073B3F1807F00D1012007E0D9
:10306000CB6AB3F1C07F00D1012001E000E000BFD6
:1030700034E08B69B3F5005F1AD132B1012A07D071
:10308000022A03D0032A11D10AE000BF01200EE07A
:10309000CB6A03F08073B3F1807F00D1012006E09A
:1030A000CB6AB3F1C07F00D1012000E000BF15E082
:1030B00032B1012A05D0022A04D0032A0CD103E040
:1030C00000BF00BF012008E0CB6A03F08073B3F1BA
:1030D000807F00D1012000E000BF00BF704730B505
:1030E0000468246824F4802405682C600468636004
:1030F0008468402C04D10468A2600468E16003E0A5
:103100000468A1600468E26030BD704710B501201A
:1031100000F0A8FF10BD10B5082000F0A3FF10BDFF
:1031200010B5102000F09EFF10BD10B5202000F05B
:1031300099FF10BD704710B5024692F82030012B60
:1031400001D0022B06D11068406908431468606101
:10315000002010BD506A40F4802050620120F8E742
:10316000F0B504460D461E4694F82070206883682A
:10317000A86800B900E000BF012F01D0022F7CD168
:1031800003F0806030B903F0006018B903F080509C
:10319000002873D0C3F30161022905D9606A40F4A5
:1031A000000060620120F0BD012088403060A86806
:1031B00060B9B5F800C0E86840EA4C5C206800F5EA
:1031C000C07000EB0110C0F800C00FE0D5E901C0ED
:1031D00040EACC00D5F80CC040EA0C00D4F800C09E
:1031E0000CF5C07C0CEB011CCCF80000D5F810C02D
:1031F000206800F5C07000EB0110C0F804C0287D05
:1032000001280ED1206800F5C07000EB0110406865
:1032100040F4807C206800F5C07000EB0110C0F81D
:1032200004C0D079000692F806C040EA0C4092F83B
:1032300005C040EA0C2C10794CEA000C206800F51F
:10324000C07000EB0110C0F80CC0D078000692F8F6
:1032500002C040EA0C4092F801C040EA0C2092F80B
:1032600000C040EA0C00D4F800C00CF5C07C0CEBA8
:10327000011CCCF80800206801E016E00FE000F522
:10328000C07000EB0110006840F0010C206800F5F0
:10329000C07000EB0110C0F800C0002083E7606A36
:1032A00040F40010606201207DE7606A40F48020F5
:1032B0006062012077E70000F0B504460A46216805
:1032C00094F82050012D01D0022D7ED1424901F504
:1032D0000071086840F001000860086820F47C5024
:1032E00008600868566A40EA06200860107D00F011
:1032F0001F06012000FA06F3C8699843C861A1F5CA
:103300000071D069C8B9D1F80C029843C1F80C0219
:10331000908880B2968940EA064601F51070576998
:1033200040F83760108880B2168940EA064601F5F9
:103330001070576900EBC7004660D069012819D1A9
:10334000D1F80C021843C1F80C02908880B216889C
:1033500040EA064601F51070576940F837609089D9
:1033600080B2168940EA064601F51070576900EBF5
:10337000C7004660906928B9D1F804029843C1F8A3
:10338000040204E0D1F804021843C1F804021069F1
:1033900028B9D1F814029843C1F8140204E0D1F816
:1033A00014021843C1F81402106A012804D1D1F89C
:1033B0001C021843C1F81C02D1F8000220F00100E1
:1033C000C1F800020020F0BDFFE7606A40F48020F1
:1033D00060620120F7E7000000640040704770B5AC
:1033E000044694F82050012D01D0022D7CD151B912
:1033F0002068C06800F0030080B9606A40F40010E3
:103400006062012070BD2068006900F0030028B9E7
:10341000606A40F4001060620120F3E7206800F564
:10342000D87000EB0110006800F004009060906814
:1034300040B9206800F5D87000EB01100068400D1D
:10344000106007E0206800F5D87000EB01100068FC
:10345000C0085060206800F5D87000EB01100068CB
:1034600000F002004008D060206800F5D87000EB42
:103470000110406800F00F001061206800F5D8705E
:1034800000EB0110406800F47F40000A9061206862
:1034900000F5D87000EB01104068000C5061206806
:1034A00000F5D87000EB011080681870206800F5F6
:1034B000D87000EB0110806800F47F40000A58705B
:1034C000206800F5D87000EB0110806800F47F00E0
:1034D000000C9870206800F5D87000EB011080682F
:1034E000000ED870206800E031E000F5D87000EBE5
:1034F0000110C0681871206800F5D87000EB011049
:10350000C06800F47F40000A5871206800F5D87048
:1035100000EB0110C06800F47F00000C9871206877
:1035200000F5D87000EB0110C068000ED87131B9F9
:103530002068C06840F020002668F06005E0206840
:10354000006940F020002668306100205AE7606A78
:1035500040F480206062012054E72DE9F05F0446CA
:103560000025206846692068D0F8049020688768A4
:103570002068D0F80CA02068D0F810B02068D0F8EF
:10358000188006F00100002855D007F00100C0B1F6
:1035900001202168886007F0020018B1204600F081
:1035A000F6FA0EE007F0040010B145F4006508E0FB
:1035B00007F0080010B145F4805502E0204600F005
:1035C000E5FA07F48070C8B14FF480702168886014
:1035D00007F4007018B1204600F0DBFA0EE007F4A3
:1035E000806010B145F4005508E007F4006010B1A8
:1035F00045F4804502E0204600F0CAFA07F4803026
:10360000C8B14FF480302168886007F4003018B1E9
:10361000204600F0C0FA0EE007F4802010B145F417
:10362000004508E007F4002010B145F4803502E0C1
:10363000204600F0AFFA06F0080038B10AF010009A
:1036400020B145F4007510202168C86006F0040020
:1036500040B10AF0080028B108202168C86020465F
:1036600000F00CFA06F0020038B12068C06800F0E3
:10367000030010B1204600F003FA06F0400038B114
:103680000BF0100020B145F480651020216808611E
:1036900006F0200040B10BF0080028B10820216896
:1036A0000861204600F040FA06F0100038B12068AA
:1036B000006900F0030010B1204600F036FA06F46D
:1036C000003040B109F0100028B110202168486096
:1036D000204600F02BFA06F4803040B109F00800D3
:1036E00028B1082021684860204600F055FA06F409
:1036F000004088B309F0040078B306F4807020B16C
:1037000008F0010008B145F0010506F4007020B191
:1037100008F0020008B145F0020506F4806020B10F
:1037200008F0040008B145F0040506F40060A0B1FB
:1037300008F0700088B108F07000402817D006DC4F
:1037400010280BD020280CD0302819D10CE050289C
:1037500010D0602814D110E01DE019E045F00805F4
:103760000FE045F010050CE045F0200509E045F0BC
:10377000400506E045F0800503E045F4807500E073
:1037800000BF00BF2068806920F070002168886158
:103790000420216848602DB1606A28436062204699
:1037A000FFF71CFEBDE8F09F70B504460CB9012080
:1037B00070BD94F8200010B9204600F0AFF82068E2
:1037C000006820F002002168086000F05FFD0546F7
:1037D0000DE000F05BFD401B0A2808D9606A40F448
:1037E00000306062052084F820000120E0E72068B6
:1037F000406800F002000028EBD12068006840F02B
:1038000001002168086000F041FD05460DE000F070
:103810003DFD401B0A2808D9606A40F40030606210
:10382000052084F820000120C2E72068406800F0ED
:1038300001000028EBD0207E012806D12068006816
:1038400040F080002168086005E02068006820F0F2
:10385000800021680860607E012806D12068006829
:1038600040F040002168086005E02068006820F012
:10387000400021680860A07E012806D12068006809
:1038800040F020002168086005E02068006820F012
:10389000200021680860E07E012806D120680068C9
:1038A00020F010002168086005E02068006840F002
:1038B000100021680860207F012806D12068006878
:1038C00040F008002168086005E02068006820F0EA
:1038D000080021680860607F012806D12068006820
:1038E00040F004002168086005E02068006820F0CE
:1038F000040021680860D4E90201084321690843F3
:10390000616908436168491E08432168C861002055
:103910006062012084F82000002049E710B586B0DD
:103920000446142101A8FDF7F9F94E4920688842A0
:1039300041D14D480068401C4B490860084600686A
:1039400001280FD100BF002000904848006840F0D7
:103950000070464908600846006800F0007000905A
:1039600000BF00BF00BF0020009040481038006832
:1039700040F008003D49103908600846006800F032
:103980000800009000BF00BF0320019002200290B9
:1039900000200390032004900920059001A93448D9
:1039A00000F06EFB00220621142001F06BF81420B9
:1039B00001F058F854E02F492068884250D100BFE8
:1039C000002000902948006840F080602749086086
:1039D0000846006800F08060009000BF00BF2248E9
:1039E0000068401C204908600846006801280FD183
:1039F00000BF002000901D48006840F000701B4987
:103A000008600846006800F00070009000BF00BF2A
:103A100000BF0020009015481038006840F00200F8
:103A20001249103908600846006800F00200009052
:103A300000BF00BF60200190022002900020039090
:103A4000032004900920059001A90B4800F018FB01
:103A500000220621402001F015F8402001F002F874
:103A600006B010BD00640040100000204038024045
:103A7000000C024000680040000402407047000053
:103A800010B58CB00446244B05AA00212046FFF750
:103A9000A6FC08A80FC88DE80F001F4805A90EC98D
:103AA00005F08AFF0598A0F2062010B101282ED15A
:103AB00016E01A48818AB0F91C00081AB0F57A6F2E
:103AC00002DD0020164908601448818AB0F91C0004
:103AD000081A10F57A6F02DA01201149086017E020
:103AE0000E48C18BB0F92600081AB0F57A6F02DDD6
:103AF00000200C4908600948C18BB0F92600081A5B
:103B000010F57A6F02DA01200649086000E000BF74
:103B100000BF0CB010BD0000A0000020E46E00202B
:103B2000A8000020AC00002070477047704770B5B7
:103B3000044694F82000012822D1022084F82000B5
:103B40002068006820F001002168086000F09EFBFA
:103B500005460DE000F09AFB401B0A2808D9606A70
:103B600040F400306062052084F82000012070BD20
:103B70002068406800F001000028EBD16062F6E7A1
:103B8000606A40F4002060620120F0E770477047EF
:103B900070477047704770477047014691F835008D
:103BA000022803D08020486501207047052081F855
:103BB00035000868006820F001000A6810600020E5
:103BC000F3E70000F8B50446002000908C48006838
:103BD0004FF41651B0FBF1F7A56D2E6894F85C1008
:103BE00008208840304098B12068006800F0040048
:103BF00070B12068006820F004002168086094F823
:103C00005C1008208840A860606D40F0010060658D
:103C100094F85C1001208840304068B12068406909
:103C200000F0800040B194F85C1001208840A8604A
:103C3000606D40F00200606594F85C1004208840DC
:103C4000304068B12068006800F0020040B194F88C
:103C50005C1004208840A860606D40F0040060653E
:103C600094F85C1010208840304078B320680068D9
:103C700000F0080050B394F85C1010208840A86051
:103C80002068006800F4802080B12068006800F49B
:103C9000002028B9206CC8B12046216C884715E067
:103CA000A06C98B12046A16C88470FE0206800689E
:103CB00000F4807028B92068006820F008002168AE
:103CC0000860206C10B12046216C884794F85C1085
:103CD000202088403040002865D02068006800F02F
:103CE000100000285FD094F85C1020208840A86065
:103CF00094F83500052828D12068006820F01600C7
:103D0000216808602068406920F0800021684861CF
:103D1000206C08B9A06C28B12068006820F0080069
:103D20002168086094F85C103F208840A86000BFBC
:103D3000002084F8340000BF012084F83500206D95
:103D400010B12046216D8847F8BD2068006800F456
:103D5000802080B12068006800F4002028B9606CE1
:103D600010B12046616C88471DE0E06BD8B1204659
:103D7000E16B884717E02068006800F4807068B93C
:103D80002068006820F010002168086000BF002053
:103D900084F8340000BF012084F83500E06B10B1D6
:103DA0002046E16B8847606D38B3606D00F001001C
:103DB000F0B1052084F835002068006820F001008B
:103DC0002168086000BF0098401C0090B84200D9EC
:103DD00005E02068006800F001000028F3D100BF72
:103DE00000BF002084F8340000BF012084F83500B3
:103DF000E06C10B12046E16C884700BFA4E70000EA
:103E0000200000202DE9F0410446002500F03EFA94
:103E1000074614B90120BDE8F081606A00B100BF17
:103E200000BF002084F8340000BF022084F8350071
:103E30002068006820F00100216808600AE000F0B6
:103E400025FAC01B052805D920206065032084F8C9
:103E50003500E0E72068006800F001000028EED19E
:103E60002068056821480540D4E901010843E1685C
:103E700008432169084361690843A1690843E1696E
:103E80000843216A08430543606A042803D1D4E942
:103E90000B0108430543206805602068456925F04B
:103EA0000705606A0543606A04280DD1A06A0543CE
:103EB000E06A48B12046FFF7BDF828B140206065B0
:103EC000012084F83500A6E7206845612046FFF709
:103ED00097F8064694F85C103F208840B0600020B8
:103EE0006065012084F83500002094E73F8010F0E1
:103EF0002DE9F04704460D4616461F464FF00008D0
:103F0000D4F8589000BF94F83400012802D1022060
:103F1000BDE8F087012084F8340000BF94F8350034
:103F200001282BD1022084F83500002060653B4633
:103F3000324629462046FFF7D2F894F85C103F201D
:103F40008840C9F808002068006840F01600216821
:103F500008602068406940F0800021684861206C5A
:103F600028B12068006840F00800216808602068D7
:103F7000006840F001002168086006E000BF0020F2
:103F800084F8340000BF4FF002084046C0E700004C
:103F900010B50446102C12D12948007840F00100D9
:103FA000274908702748007840F00100254908702B
:103FB00025480078002841D005F09AFF3EE0202CEB
:103FC0000BD12248007840F00100204908701E48BB
:103FD000007898B305F08CFF30E0082C19D11C480C
:103FE000007840F001001A4908700846007800F097
:103FF0000100087010B30846007820F00100087036
:104000000846007840F002000870124806F056F9A1
:1040100014E0012C12D10AF0F3FC01280ED00E4955
:104020000E48006809F0CCFE0B48006830B120074C
:104030000B490860BFF34F8FBFF36F8F10BD0000B7
:104040005601002057010020590100205501002091
:1040500058010020287300205C010020300100205E
:1040600004ED00E010B5044604480068204020B18B
:10407000024804602046FFF78BFF10BD143C01404E
:10408000F8B502460B460025002400200021DCE0A4
:10409000012606FA01F51E6806EA0504AC4273D152
:1040A0005E68022E02D05E68122E13D1CF0802F194
:1040B000200656F827004E07F70E0F26BE40B043E5
:1040C0004F07FF0E1E69BE403043CF0802F12006A5
:1040D00046F8270010684F000326BE40B0431E7903
:1040E00006F003064F00BE40304310605E68012EAC
:1040F00008D05E68022E05D05E68112E02D05E6880
:10410000122E13D190684F000326BE40B0434F00DB
:10411000DE68BE4030439060506801268E40B04358
:104120001E79C6F300168E4030435060D0684F00B1
:104130000326BE40B0434F009E68BE403043D0606F
:104140005E6806F08056B6F1805F7DD100BF002624
:104150000096404E366846F480463E4F3E603E46EE
:10416000366806F48046009600BF00BF3A4E8F08BE
:1041700056F827008E07370F0F26BE40B043374E44
:10418000B24202D1002624E05EE0354EB24201D1B7
:1041900001261EE0334EB24201D1022619E0324E12
:1041A000B24201D1032614E0304EB24201D10426BE
:1041B0000FE02F4EB24201D105260AE02D4EB24249
:1041C00001D1062605E02C4EB24201D1072600E0BF
:1041D00008268F073F0FBE4030431F4E8F0846F81A
:1041E0002700264E3068A0435E6806F48036B6F598
:1041F000803F00D12043214E3060361D3068A043FF
:104200005E6806F40036B6F5003F00D120431B4E31
:10421000361D3060361D3068A0435E6806F4801697
:10422000B6F5801F00D12043144E08363060361D8D
:104230003068A0435E6806F40016B6F5001F00D192
:1042400020430E4E0C363060491C1029FFF420AF7D
:10425000F8BD000044380240083801400000024028
:104260000004024000080240000C0240001002401E
:104270000014024000180240001C0240003C0140B3
:104280000AB1816101E00B04836170470148006855
:10429000704700001400002070B504460CB90120DE
:1042A00070BD94F83D0028B9002084F83C002046F9
:1042B00000F0FAFA242084F83D002068006820F01D
:1042C00001002168086000F0F5FC05465C49606863
:1042D000884206D85B48854201D2012007E00020D1
:1042E00005E05948854201D2012000E00020012864
:1042F00000D1D5E75548B5FBF0F62068406820F0BE
:104300003F003043216848604D496068884201D8C9
:10431000701C07E04FF4967070434FF47A71B0FB55
:10432000F1F0401C2168096A21F03F01084321682F
:10433000086243496068884214D8681E6168490071
:10434000B0FBF1F0401CC0F30B00042801D20420A4
:104350003DE0681E61684900B0FBF1F0401CC0F30D
:104360000B0034E0A06838B9681E616801EB4101B8
:10437000B0FBF1F0401C0AE0681E616801EBC1026D
:1043800002EB0111B0FBF1F0401C40F48040C0F39F
:104390000B0008B901201AE0A06848B9681E6168DE
:1043A00001EB4101B0FBF1F0401CC0F30B000CE04D
:1043B000681E616801EBC10202EB0111B0FBF1F074
:1043C000401CC0F30B0040F4804040F400402168E2
:1043D000C9694CF6FF72914308432168C861D4E96A
:1043E000070108432168096821F0C00108432168DA
:1043F0000860D4E9031008432168896848F2FF3255
:104400009143084321688860D4E905010843216885
:10441000C96821F0FF0108432168C860206800686E
:1044200040F001002168086000202064202084F80A
:104430003D000020206384F83E0000BF30E700000C
:10444000A086010080841E0000093D0040420F004C
:104450002DE9FC5F04460F4690469946DDE90CAB1A
:104460000E9EFFF713FF054694F83D00202870D1FB
:1044700019230122B0492046009501F04DFF10B1EB
:104480000220BDE8FC9F00BF94F83C00012801D148
:104490000220F6E7012084F83C0000BF2068006895
:1044A00000F0010028B92068006840F00100216890
:1044B00008602068006820F40060216808602220FD
:1044C00084F83D00402084F83E0000202064C4F8B9
:1044D00024A0A4F82AB0608D20859848E0624B465D
:1044E000424639462046CDE9006501F0E5FD08B1B8
:1044F0000120C6E7208D88B900BF00200190206808
:104500004069019020688069019000BF00BF206869
:10451000006840F400702168086040E0208D0128A8
:1045200018D12068006820F480602168086000BF0E
:104530000020019020684069019020688069019006
:1045400000BF00BF2068006840F400702168086068
:1045500025E0EFE0208D022816D12068006820F4C5
:104560008060216808602068006840F4006021686D
:10457000086000BF00200190206840690190206819
:104580008069019000BF0AE000BF00200190206810
:104590004069019020688069019000BF00BFBAE0C7
:1045A000208D03287ED8208D012815D12A4631463A
:1045B000204601F056FF08B1012062E7206800693B
:1045C000616A0870606A401C6062208D401E208510
:1045D000608D401E60859EE0208D02282AD13346E2
:1045E000002257492046009501F096FE08B10120AF
:1045F00047E72068006840F4007021680860206880
:104600000069616A0870606A401C6062208D401E0B
:104610002085608D401E608520680069616A087091
:10462000606A401C6062208D401E2085608D401EA7
:10463000608570E03346002241492046009501F034
:104640006BFE08B101201CE72068006820F4806040
:104650002168086020680069616A0870606A401C0F
:104660006062208D401E2085608D401E608533462F
:10467000002233492046009501F04EFE08B101208A
:10468000FFE62068006840F4007021680860206838
:104690000069616A0870606A401C6062208D401E7B
:1046A000208500E010E0608D401E60852068006974
:1046B000616A0870606A401C6062208D401E20851F
:1046C000608D401E608526E02A463146204601F076
:1046D000C8FE08B10120D4E620680069616A08704C
:1046E000606A401C6062208D401E2085608D401EE7
:1046F000608520684069C0F3800060B1206800696F
:10470000616A0870606A401C6062208D401E2085CE
:10471000608D401E6085208D00287FF441AF2020F1
:1047200084F83D00002084F83E0000BF84F83C007F
:1047300000BFA6E60220A4E6020010000000FFFF72
:10474000040001002DE9FC5F04460F46904699469F
:10475000DDE90CAB0E9EFFF799FD054694F83D0090
:1047600020287DD1192301224D492046009501F0D2
:10477000D3FD10B10220BDE8FC9F00BF94F83C00BF
:10478000012801D10220F6E7012084F83C0000BF97
:104790002068006800F0010028B92068006840F037
:1047A0000100216808602068006820F4006021682A
:1047B0000860212084F83D00402084F83E0000205D
:1047C0002064C4F824A0A4F82AB0608D2085354860
:1047D000E0624B46424639462046CDE9006501F08D
:1047E00007FD08B10120C6E731E02A4631462046E0
:1047F00001F077FE50B1206C042805D120680068D4
:1048000040F40070216808600120B4E7606A007815
:1048100021680861606A401C6062208D401E20850E
:10482000608D401E608520684069C0F3800070B1D3
:10483000208D60B1606A007821680861606A401C60
:104840006062208D401E2085608D401E6085208D19
:104850000028CAD12A463146204601F02FFD00E04B
:104860001CE050B1206C042805D12068006840F499
:1048700000702168086001207DE72068006840F42E
:10488000007021680860202084F83D00002084F832
:104890003E0000BF84F83C0000BF6CE702206AE7DE
:1048A000020010000000FFFF10B586B0044614217E
:1048B00001A8FCF733FA2A49206888424DD100BF8D
:1048C000002000902748006840F004002549086057
:1048D0000846006800F00400009000BF00BF00BF61
:1048E000002000900846006840F00100086008467B
:1048F000006800F00100009000BF00BF4815019063
:1049000012200290012003900320049004200590BF
:1049100001A91548FFF7B4FB4FF4807001901220F5
:10492000029001200390032004900420059001A927
:104930000E48FFF7A5FB00BF00200090094810308B
:10494000006840F40000074910310860084600681C
:1049500000F40000009000BF00BF06B010BD0000D2
:10496000005C004030380240000802400000024075
:104970000348006803490978084401490860704702
:10498000140000201C00002010B50D48006840F401
:1049900000700B4908600846006840F480600860B9
:1049A0000846006840F480700860032000F0A8F812
:1049B0000F2000F007F800F02BF8002010BD0000D9
:1049C000003C024070B504460E4800784FF47A71FE
:1049D000B1FBF0F00C490968B1FBF0F5284600F096
:1049E0000CFE08B1012070BD102C07D20022214618
:1049F000501E00F047F80548046001E00120F2E78E
:104A00000020F0E71C0000202000002018000020FB
:104A100008B500BF002000901148006840F48040B5
:104A20000F4908600846006800F48040009000BF0D
:104A300000BF00BF00200090081F006840F08050B9
:104A4000091F08600846006800F08050009000BF11
:104A500000BF00220F21901E00F014F808BD0000D6
:104A60004438024001460846002809DB00F01F03D5
:104A700001229A4043099B0003F1E023C3F800217F
:104A800000BF70472DE9F05F80460D4616460027AF
:104A900003F0B6FC074639462A46334601F00700C4
:104AA000C0F1070ABAF1040F02D94FF0040A01E07D
:104AB000C0F1070AD14600F1040ABAF1070F02D289
:104AC0004FF0000A01E0A0F1030AD4464FF0010ABA
:104AD0000AFA09FAAAF1010A0AEA020A0AFA0CFA1F
:104AE0004FF0010B0BFA0CFBABF1010B0BEA030BC4
:104AF0004AEA0B042146404603F08AFCBDE8F09FD9
:104B000000BF00F00702064B19684FF6FF0319407B
:104B1000044B0B4343EA0221014B196000BF70476D
:104B20000CED00E00000FA0570B504460D460CB926
:104B3000012070BD5848006800F00F00A84209D25B
:104B400055490D700846006800F00F00A84201D0DA
:104B50000120EEE7207800F0020002281DD1207825
:104B600000F00400042805D14C48006840F4E050EF
:104B70004A490860207800F00800082805D1474815
:104B8000006840F46040454908604448006820F0EF
:104B9000F000A168084341490860207800F0010056
:104BA000A8B36068012807D13C4808380068C0F302
:104BB0004040B8B90120BCE76068022802D06068B4
:104BC000032807D1354808380068C0F3406048B969
:104BD0000120AEE7314808380068C0F3400008B94A
:104BE0000120A6E72D48006820F003006168084313
:104BF0002A490860FFF74AFB064609E0FFF746FB33
:104C0000801B41F28831884202D9032091E707E0F6
:104C10002248006800F00C006168B0EB810FEDD114
:104C20001D48006800F00F00A84209D91A490D700C
:104C30000846006800F00F00A84201D0012078E784
:104C4000207800F00400042807D11448006820F4FC
:104C5000E050E168084311490860207800F008003E
:104C6000082808D10D48006820F46040216940EA16
:104C7000C1000A49086000F03DF808490968C1F31D
:104C80000311074A515CC840064908600F20FFF72E
:104C900099FE00204DE70000003C02400838024029
:104CA0009CFB0008200000200148006870470000BD
:104CB0002000002000B5FFF7F7FF04490968C1F3A1
:104CC0008221034A515CC84000BD00000838024000
:104CD000ACFB000800B5FFF7E7FF04490968C1F322
:104CE0004231034A515CC84000BD00000838024010
:104CF000ACFB00082DE9F047002400250026A14662
:104D00002548006800F00C0020B1042805D00828D0
:104D10003AD105E0DFF8849039E0DFF8849036E09E
:104D20001D48001F006800F03F041B48001F00687A
:104D300000F4800078B11A481749091F0968C1F3C7
:104D40008811A0FB01700146224600233846FBF77C
:104D5000AFFB05460EE011480F49091F0968C1F372
:104D60008811A0FB01700146224600233846FBF75C
:104D70009FFB05460848001F0068C0F30140401C27
:104D80004600B5FBF6F902E0DFF8109000BF00BF67
:104D90004846BDE8F0870000083802400024F400CF
:104DA000001BB700F8B504460CB90120F8BD207807
:104DB00000F00100002874D0F948006800F00C00F1
:104DC00004280DD0F648006800F00C00082813D124
:104DD000F348001F006800F48000B0F5800F0BD18D
:104DE000EF4808380068C0F34040002859D0606898
:104DF000002856D10120D9E700BF6068B0F5803F98
:104E000008D1E7480838006840F48030E4490839A0
:104E100008601EE06068B0F5A02F0DD1E0480838AA
:104E2000006840F48020DE490839086008460068C0
:104E300040F4803008600CE0D9480838006820F45D
:104E40008030D749083908600846006820F480207F
:104E5000086000BF606890B1FFF718FA054606E0E9
:104E6000FFF714FA401B642801D903209EE7CC48C1
:104E700008380068C0F340400028F1D011E0FFF787
:104E800005FA054606E0FFF701FA401B642801D940
:104E900003208BE7C24808380068C0F34040002870
:104EA000F1D1207800F0020002285FD1BC480068F0
:104EB00000F00C0058B1BA48006800F00C00082857
:104EC0001CD1B748001F006800F48000B0B9B44896
:104ED00008380068C0F3400020B1E068012801D024
:104EE000012063E7AE480838006820F0F800216927
:104EF00040EAC100AA490839086037E0E06800B319
:104F00000120A8490860FFF7C1F9054606E0FFF750
:104F1000BDF9401B022801D9032047E7A048083803
:104F20000068C0F340000028F1D09D4808380068B0
:104F300020F0F800216940EAC10099490839086069
:104F400014E0002097490860FFF7A0F9054606E045
:104F5000FFF79CF9401B022801D9032026E790485F
:104F600008380068C0F340000028F1D1207800F034
:104F7000080008282CD16069A8B101208A4908607E
:104F8000FFF784F9054606E0FFF780F9401B022889
:104F900001D903200AE782486C300068C0F3400062
:104FA0000028F1D014E000207F490860FFF76EF977
:104FB000054606E0FFF76AF9401B022801D90320E5
:104FC000F4E677486C300068C0F340000028F1D167
:104FD000207800F00400042870D100267048383092
:104FE000006800F0805090B900BF002000906C482D
:104FF0003830006840F08050694938310860084610
:10500000006800F08050009000BF00BF0126674894
:10501000006800F48070B0B96448006840F48070A3
:1050200062490860FFF732F9054606E0FFF72EF9FE
:10503000401B022801D90320B8E65C48006800F450
:1050400080700028F2D000BFA068012808D1544821
:105050006830006840F001005149683108601DE087
:10506000A06805280DD14E486830006840F0040063
:105070004B49683108600846006840F0010008604C
:105080000CE047486830006820F00100444968316E
:1050900008600846006820F00400086000BFA068AF
:1050A000A8B1FFF7F3F8054609E0FFF7EFF8401B5A
:1050B00041F28831884202D9032077E626E0384859
:1050C00068300068C0F340000028EED013E0FFF71E
:1050D000DDF8054608E0FFF7D9F8401B41F28831BA
:1050E000884201D9032061E62D4868300068C0F38A
:1050F00040000028EFD1012E07D129483830006840
:1051000020F0805026493831086000BFA069B8B34C
:105110002348006800F00C0008285ED0A06902282F
:1051200046D100201F490866FFF7B0F8054606E0A3
:10513000FFF7ACF8401B022801D9032036E61848D7
:1051400008380068C0F340600028F1D1D4E90701B5
:105150000843616A40EA81110122A06AC2EB500053
:1051600041EA00412C20005D41EA00600C49091F22
:10517000086001200B490866FFF788F8054607E03C
:105180002DE0FFF783F8401B022801D903200DE62C
:10519000034808380068C0F340600028F1D01EE0E2
:1051A0000838024000004742800E4742007000402D
:1051B00000200C490866FFF769F8054606E0FFF78E
:1051C00065F8401B022801D90320EFE50648006876
:1051D000C0F340600028F2D101E00120E6E50020A4
:1051E000E4E50000000047420038024010B50446E4
:1051F0000CB9012010BD606A00B900BF0021A16296
:1052000094F8510028B9002084F85000204600F09E
:1052100033F8022084F851002068006820F0400034
:1052200021680860D4E901010843E1680843216965
:10523000084361690843218B01F400710843E16967
:105240000843216A0843A16A0843216808600421D1
:10525000A06901EA1040616A08432168486020683B
:10526000C06920F400602168C861002060650120E9
:1052700084F851000020BDE710B586B00446142123
:1052800001A8FBF74BFD4B49206888427ED100BF47
:10529000002000904848006840F48050464908606B
:1052A0000846006800F48050009000BF00BF00BFB7
:1052B0000020009040481438006840F002003E4949
:1052C000143908600846006800F00200009000BF32
:1052D00000BF00BF002000900846006840F00100B9
:1052E00008600846006800F00100009000BF00BFA1
:1052F00018200190022002900120039003200490C6
:105300000520059001A92D48FEF7BAFE80200190E6
:1053100002200290012003900320049005200590B4
:1053200001A92748FEF7ACFE2648274908604FF040
:10533000C0604860002124488160C1604FF48061F2
:105340000161002141618161C1614FF4403101621D
:1053500000214162FEF756FD08B1FDF7EBFE00BFEC
:105360001948E064846300BF164818301749086084
:105370004FF0C06048604021144881600021C16046
:105380004FF4806101610021416100E010E0816122
:10539000C1614FF40031016200214162FEF732FD2C
:1053A00008B1FDF7C7FE00BF0848A064846300BFD2
:1053B00006B010BD003001404438024000040240F5
:1053C000000002404064024044090020A40900207B
:1053D0002DE9FF5F0446884691461D460E9E01203A
:1053E00002900020019000BF94F85000012803D1E2
:1053F000022004B0BDE8F09F012084F8500000BFF7
:10540000FEF744FF074694F851B060680390AA463F
:10541000BBF1010F0BD00398B0F5827F04D1A068D7
:1054200010B9BBF1040F02D002200190DBE0B8F10B
:10543000000F03D0B9F1000F00D015B90120019081
:10544000D1E094F85100042802D0052084F85100DE
:1054500000206065C4F83890E587A587C4F83080DF
:10546000E586A586206460642068006800F040003E
:10547000402805D02068006840F04000216808609E
:10548000E068B0F5006F4AD1606810B1BAF1010F61
:1054900009D1206B00882168C860206B801C2063C4
:1054A000E08E401EE08633E02068806800F0020055
:1054B000022810D1E08E70B1029801280BD1206B28
:1054C00000882168C860206B801C2063E08E401E2D
:1054D000E086002002902068806800F0010068B13A
:1054E000E08F58B12068C068A16B0880A06B801C59
:1054F000A063E08F401EE08701200290FEF7C6FE09
:10550000C01BB04204D3701C10B1032001906AE0AC
:10551000E08E0028C8D1E08F0028C5D14AE060683D
:1055200010B1BAF1010F09D1206B0078216808731E
:10553000206B401C2063E08E401EE08634E0206833
:10554000806800F00200022810D1E08E70B102984D
:1055500001280BD1206B007821680873206B401C58
:105560002063E08E401EE086002002902068806864
:1055700000F0010068B1E08F58B12068C068A16BED
:105580000870A06B401CA063E08F401EE0870120E4
:105590000290FEF77BFEC01BB04201D3701C00B925
:1055A00016B9032001901EE0E08E0028C7D1E08FDD
:1055B0000028C4D13A463146204602F06DF920B1A8
:1055C00001200190202060650DE0A06850B900BF67
:1055D000002000902068C0680090206880680090DB
:1055E00000BF00BF00BF012084F8510000BF0020B1
:1055F00084F8500000BF0198FBE670B504462546CC
:10560000681EB0F1807F01D301200FE0681E4FF0CB
:10561000E02148610F214FF0FF3002F0F9FE002039
:105620004FF0E021886107200861002070BD10B5AF
:10563000024600BF92F83C00012801D1022010BDB3
:10564000012082F83C0000BF022082F83D00106873
:1056500043681068846823F070030868034324F0EB
:105660008004486804431068436010688460012027
:1056700082F83D0000BF002082F83C0000BF00BF60
:10568000DDE710B504460CB9012010BD94F83D00CB
:1056900028B9002084F83C00204600F00DF80220D4
:1056A00084F83D00211D206802F016FA012084F8DC
:1056B0003D000020E9E7000008B51F4A016891425B
:1056C0000FD100BF002100911C49096841F004017D
:1056D0001A4A11601146096801F00401009100BFE7
:1056E00029E0174A016891420FD100BF00210091C3
:1056F0001249096841F00801104A11601146096811
:1057000001F00801009100BF15E00E4A01689142C6
:1057100011D100BF002100910849091D096841F419
:105720000031064A121D11601146096801F400316A
:10573000009100BF00BF08BD000800404038024093
:10574000000C0040004401400146022081F83D0069
:105750000868806800F00702062A05D0086800681B
:1057600040F001000B681860012081F83D00002026
:1057700070472DE9F04104460D4600BF94F83C0007
:10578000012802D10220BDE8F081012084F83C000C
:1057900000BF022084F83D002068866826F0770666
:1057A00026F47F46206886602868502833D00CDCB9
:1057B000202850D004DC00284BD0102851D149E0DB
:1057C000302849D040284CD139E060282DD07028AD
:1057D00007D0B0F5805F03D0B0F5005F41D10DE098
:1057E00040E0D5E902136A68206802F0F2F9206807
:1057F000866846F077062068866033E0D5E90213B4
:105800006A68206802F0E5F92068806840F480400A
:105810002168886026E0EA686968206802F0CAFAB0
:105820005021206802F0E0F91CE0EA68696820680D
:1058300002F0D3FA6021206802F0D6F912E0EA689B
:105840006968206802F0B6FA4021206802F0CCF9BD
:1058500008E000BF00BF00BF2968206802F0C4F95B
:1058600000E000BF00BF012084F83D0000BF002021
:1058700084F83C0000BF00BF85E7000010B586B08B
:105880000446142101A8FBF749FA3F4920688842E1
:105890001DD100BF002000903C48006840F002008D
:1058A0003A4908600846006800F00200009000BF16
:1058B00000BF881501900220029000200390049000
:1058C0000220059001A93248FEF7DAFB5AE031497F
:1058D000206888422DD100BF002000902B4800682E
:1058E00040F08000294908600846006800F0800008
:1058F000009000BF00BF4FF4E050019002200290E2
:105900000120039002200490059001A92248FEF78F
:10591000B7FB2248FFF718FF0021204800F0E6F807
:1059200004211E4800F0E2F808211C4800F0DEF8CF
:1059300028E01B492068884224D100BF0020009045
:105940001248006840F020001049086008460068CE
:1059500000F02000009000BF00BF40200190022016
:10596000029001200390022004900320059001A9D9
:105970000C48FEF785FB0C48FFF7E6FE00210A48BD
:1059800000F0B4F806B010BD000800403038024006
:1059900000040240000C0040001C0240440A0020A9
:1059A0000044014000140240840A002070B50446FF
:1059B0000D46164600BF94F83C00012801D1022094
:1059C00070BD012084F83C0000BF022084F83D0037
:1059D00036B1042E1BD0082E31D00C2E5ED145E0FE
:1059E0002946206802F00AF92068806940F0080022
:1059F000216888612068806920F00400216888613E
:105A000020688069296908432168886147E0294640
:105A1000206802F02BF92068806940F4006021685A
:105A200088612068806920F480602168886120682E
:105A30008069296940EA0120216888612FE02946B0
:105A4000206802F051F92068C06940F00800216820
:105A5000C8612068C06920F004002168C86120681E
:105A6000C069296908432168C86118E0294620688F
:105A700002F076F92068C06940F400602168C861CE
:105A80002068C06920F480602168C8612068C0690E
:105A9000296940EA01202168C86100E000BF00BF19
:105AA000012084F83D0000BF002084F83C0000BFC6
:105AB00000BF85E710B504460CB9012010BD94F86D
:105AC0003D0028B9002084F83C00204600F00CF886
:105AD000022084F83D00211D206801F0FDFF012017
